{
  "_format": "hh-sol-artifact-1",
  "contractName": "DAOVoting",
  "sourceName": "contracts/DAOVoting.sol",
  "abi": [
    {
      "inputs": [
        {
          "internalType": "address",
          "name": "_votingToken",
          "type": "address"
        },
        {
          "internalType": "uint256",
          "name": "_minVotingPower",
          "type": "uint256"
        }
      ],
      "stateMutability": "nonpayable",
      "type": "constructor"
    },
    {
      "inputs": [
        {
          "internalType": "address",
          "name": "owner",
          "type": "address"
        }
      ],
      "name": "OwnableInvalidOwner",
      "type": "error"
    },
    {
      "inputs": [
        {
          "internalType": "address",
          "name": "account",
          "type": "address"
        }
      ],
      "name": "OwnableUnauthorizedAccount",
      "type": "error"
    },
    {
      "anonymous": false,
      "inputs": [
        {
          "indexed": true,
          "internalType": "address",
          "name": "previousOwner",
          "type": "address"
        },
        {
          "indexed": true,
          "internalType": "address",
          "name": "newOwner",
          "type": "address"
        }
      ],
      "name": "OwnershipTransferred",
      "type": "event"
    },
    {
      "anonymous": false,
      "inputs": [
        {
          "indexed": true,
          "internalType": "uint256",
          "name": "id",
          "type": "uint256"
        },
        {
          "indexed": false,
          "internalType": "bytes32",
          "name": "title",
          "type": "bytes32"
        }
      ],
      "name": "ProposalCreated",
      "type": "event"
    },
    {
      "anonymous": false,
      "inputs": [
        {
          "indexed": true,
          "internalType": "uint256",
          "name": "id",
          "type": "uint256"
        }
      ],
      "name": "ProposalExecuted",
      "type": "event"
    },
    {
      "anonymous": false,
      "inputs": [
        {
          "indexed": true,
          "internalType": "address",
          "name": "user",
          "type": "address"
        },
        {
          "indexed": false,
          "internalType": "uint256",
          "name": "amount",
          "type": "uint256"
        }
      ],
      "name": "RewardsClaimed",
      "type": "event"
    },
    {
      "anonymous": false,
      "inputs": [
        {
          "indexed": true,
          "internalType": "uint256",
          "name": "id",
          "type": "uint256"
        },
        {
          "indexed": true,
          "internalType": "address",
          "name": "voter",
          "type": "address"
        },
        {
          "indexed": false,
          "internalType": "bool",
          "name": "support",
          "type": "bool"
        }
      ],
      "name": "Voted",
      "type": "event"
    },
    {
      "inputs": [
        {
          "internalType": "uint256",
          "name": "_id",
          "type": "uint256"
        }
      ],
      "name": "cancelVote",
      "outputs": [],
      "stateMutability": "nonpayable",
      "type": "function"
    },
    {
      "inputs": [],
      "name": "claimRewards",
      "outputs": [],
      "stateMutability": "nonpayable",
      "type": "function"
    },
    {
      "inputs": [
        {
          "internalType": "string",
          "name": "_title",
          "type": "string"
        }
      ],
      "name": "createProposal",
      "outputs": [],
      "stateMutability": "nonpayable",
      "type": "function"
    },
    {
      "inputs": [
        {
          "internalType": "uint256",
          "name": "_id",
          "type": "uint256"
        }
      ],
      "name": "executeProposal",
      "outputs": [],
      "stateMutability": "nonpayable",
      "type": "function"
    },
    {
      "inputs": [
        {
          "internalType": "uint256",
          "name": "_id",
          "type": "uint256"
        }
      ],
      "name": "getProposal",
      "outputs": [
        {
          "internalType": "bytes32",
          "name": "title",
          "type": "bytes32"
        },
        {
          "internalType": "uint32",
          "name": "startTime",
          "type": "uint32"
        },
        {
          "internalType": "uint32",
          "name": "endTime",
          "type": "uint32"
        },
        {
          "internalType": "uint32",
          "name": "yesVotes",
          "type": "uint32"
        },
        {
          "internalType": "uint32",
          "name": "noVotes",
          "type": "uint32"
        },
        {
          "internalType": "bool",
          "name": "executed",
          "type": "bool"
        }
      ],
      "stateMutability": "view",
      "type": "function"
    },
    {
      "inputs": [
        {
          "internalType": "uint256",
          "name": "",
          "type": "uint256"
        },
        {
          "internalType": "address",
          "name": "",
          "type": "address"
        }
      ],
      "name": "hasVoted",
      "outputs": [
        {
          "internalType": "bool",
          "name": "",
          "type": "bool"
        }
      ],
      "stateMutability": "view",
      "type": "function"
    },
    {
      "inputs": [],
      "name": "minVotingPower",
      "outputs": [
        {
          "internalType": "uint256",
          "name": "",
          "type": "uint256"
        }
      ],
      "stateMutability": "view",
      "type": "function"
    },
    {
      "inputs": [],
      "name": "owner",
      "outputs": [
        {
          "internalType": "address",
          "name": "",
          "type": "address"
        }
      ],
      "stateMutability": "view",
      "type": "function"
    },
    {
      "inputs": [],
      "name": "proposalCount",
      "outputs": [
        {
          "internalType": "uint256",
          "name": "",
          "type": "uint256"
        }
      ],
      "stateMutability": "view",
      "type": "function"
    },
    {
      "inputs": [
        {
          "internalType": "uint256",
          "name": "",
          "type": "uint256"
        }
      ],
      "name": "proposals",
      "outputs": [
        {
          "internalType": "bytes32",
          "name": "title",
          "type": "bytes32"
        },
        {
          "internalType": "uint32",
          "name": "startTime",
          "type": "uint32"
        },
        {
          "internalType": "uint32",
          "name": "endTime",
          "type": "uint32"
        },
        {
          "internalType": "uint32",
          "name": "yesVotes",
          "type": "uint32"
        },
        {
          "internalType": "uint32",
          "name": "noVotes",
          "type": "uint32"
        },
        {
          "internalType": "bool",
          "name": "executed",
          "type": "bool"
        }
      ],
      "stateMutability": "view",
      "type": "function"
    },
    {
      "inputs": [],
      "name": "renounceOwnership",
      "outputs": [],
      "stateMutability": "nonpayable",
      "type": "function"
    },
    {
      "inputs": [
        {
          "internalType": "address",
          "name": "",
          "type": "address"
        }
      ],
      "name": "rewards",
      "outputs": [
        {
          "internalType": "uint256",
          "name": "",
          "type": "uint256"
        }
      ],
      "stateMutability": "view",
      "type": "function"
    },
    {
      "inputs": [
        {
          "internalType": "address",
          "name": "newOwner",
          "type": "address"
        }
      ],
      "name": "transferOwnership",
      "outputs": [],
      "stateMutability": "nonpayable",
      "type": "function"
    },
    {
      "inputs": [
        {
          "internalType": "uint256",
          "name": "_id",
          "type": "uint256"
        },
        {
          "internalType": "bool",
          "name": "_support",
          "type": "bool"
        }
      ],
      "name": "vote",
      "outputs": [],
      "stateMutability": "nonpayable",
      "type": "function"
    },
    {
      "inputs": [
        {
          "internalType": "uint256",
          "name": "",
          "type": "uint256"
        },
        {
          "internalType": "address",
          "name": "",
          "type": "address"
        }
      ],
      "name": "voteSupport",
      "outputs": [
        {
          "internalType": "bool",
          "name": "",
          "type": "bool"
        }
      ],
      "stateMutability": "view",
      "type": "function"
    },
    {
      "inputs": [],
      "name": "votingToken",
      "outputs": [
        {
          "internalType": "contract IERC20",
          "name": "",
          "type": "address"
        }
      ],
      "stateMutability": "view",
      "type": "function"
    }
  ],
  "bytecode": "0x60c060405234801561001057600080fd5b5060405161111938038061111983398101604081905261002f916100c5565b338061005557604051631e4fbdf760e01b81526000600482015260240160405180910390fd5b61005e81610075565b506001600160a01b0390911660805260a0526100ff565b600080546001600160a01b038381166001600160a01b0319831681178455604051919092169283917f8be0079c531659141344cd1fd0a4f28419497f9722a3daafe3b4186f6b6457e09190a35050565b600080604083850312156100d857600080fd5b82516001600160a01b03811681146100ef57600080fd5b6020939093015192949293505050565b60805160a051610fe06101396000396000818161022701526109cc0152600081816102c4015281816104c901526109ee0152610fe06000f3fe608060405234801561001057600080fd5b50600436106101005760003560e01c8063715018a611610097578063c7f758a811610066578063c7f758a8146102f9578063c9d27afe14610353578063da35c66414610366578063f2fde38b1461036f57600080fd5b8063715018a6146102925780638da5cb5b1461029a578063b0340123146102bf578063bacbe2da146102e657600080fd5b806336fffde0116100d357806336fffde014610222578063372500ab14610249578063438596321461025157806349c2a1a61461027f57600080fd5b8063013cf08b146101055780630700037d146101a15780630d61b519146101cf5780631328323b146101e4575b600080fd5b61015f610113366004610d8a565b6001602081905260009182526040909120805491015463ffffffff808216916401000000008104821691600160401b8204811691600160601b810490911690600160801b900460ff1686565b6040805196875263ffffffff95861660208801529385169386019390935290831660608501529091166080830152151560a082015260c0015b60405180910390f35b6101c16101af366004610dbf565b60046020526000908152604090205481565b604051908152602001610198565b6101e26101dd366004610d8a565b610382565b005b6102126101f2366004610de1565b600360209081526000928352604080842090915290825290205460ff1681565b6040519015158152602001610198565b6101c17f000000000000000000000000000000000000000000000000000000000000000081565b6101e2610445565b61021261025f366004610de1565b600260209081526000928352604080842090915290825290205460ff1681565b6101e261028d366004610e0d565b6105ac565b6101e26106b0565b6000546001600160a01b03165b6040516001600160a01b039091168152602001610198565b6102a77f000000000000000000000000000000000000000000000000000000000000000081565b6101e26102f4366004610d8a565b6106c4565b61015f610307366004610d8a565b60009081526001602081905260409091208054910154909163ffffffff808316926401000000008104821692600160401b8204831692600160601b83041691600160801b900460ff1690565b6101e2610361366004610e8d565b6108f2565b6101c160055481565b6101e261037d366004610dbf565b610ccf565b600081815260016020819052604090912090810154600160801b900460ff161580156103bf57506001810154640100000000900463ffffffff1642115b6104015760405162461bcd60e51b815260206004820152600e60248201526d43616e6e6f74206578656375746560901b60448201526064015b60405180910390fd5b60018101805460ff60801b1916600160801b17905560405182907f712ae1383f79ac853f8d882153778e0260ef8f03b504e2866e0593e04d2b291f90600090a25050565b336000908152600460205260409020548061048f5760405162461bcd60e51b815260206004820152600a6024820152694e6f207265776172647360b01b60448201526064016103f8565b33600081815260046020819052604080832092909255905163a9059cbb60e01b815290810191909152602481018290526001600160a01b037f0000000000000000000000000000000000000000000000000000000000000000169063a9059cbb906044016020604051808303816000875af1158015610512573d6000803e3d6000fd5b505050506040513d601f19601f820116820180604052508101906105369190610ebd565b6105745760405162461bcd60e51b815260206004820152600f60248201526e151c985b9cd9995c8819985a5b1959608a1b60448201526064016103f8565b60405181815233907ffc30cddea38e2bf4d6ea7d3f9ed3b6ad7f176419f4963bd81318067a4aee73fe9060200160405180910390a250565b60208111156105ee5760405162461bcd60e51b815260206004820152600e60248201526d5469746c6520746f6f206c6f6e6760901b60448201526064016103f8565b60058054600091826105ff83610ef0565b90915550600081815260016020526040902090915061061e8385610f09565b815560018101805463ffffffff19164263ffffffff81169190911790915561064a9062093a8090610f28565b60018201805463ffffffff929092166401000000000267ffffffff0000000019909216919091179055805460405190815282907fb1e570e4094a5f87a5572e3e718941fb3822dd7fdc7a5d6d6d0d905b6c5242719060200160405180910390a250505050565b6106b8610d0d565b6106c26000610d3a565b565b6000818152600160209081526040808320600283528184203385529092529091205460ff166107295760405162461bcd60e51b8152602060048201526011602482015270139bc81d9bdd19481d1bc818d85b98d95b607a1b60448201526064016103f8565b6001810154600160801b900460ff16156107795760405162461bcd60e51b8152602060048201526011602482015270141c9bdc1bdcd85b08195e1958dd5d1959607a1b60448201526064016103f8565b6001810154640100000000900463ffffffff164211156107ca5760405162461bcd60e51b815260206004820152600c60248201526b159bdd1a5b99c8195b99195960a21b60448201526064016103f8565b600082815260026020908152604080832033808552908352818420805460ff191690558584526003835281842090845290915290205460ff161561084b57600181018054600160401b900463ffffffff1690600861082783610f3b565b91906101000a81548163ffffffff021916908363ffffffff1602179055505061088a565b600181018054600160601b900463ffffffff1690600c61086a83610f3b565b91906101000a81548163ffffffff021916908363ffffffff160217905550505b336000908152600460205260408120805467016345785d8a000092906108b1908490610f5b565b909155505060405160008152339083907ff2913dbe661ee2acc4a046d8fbcdc792373bda34c41c6086484b5345e5785e5f9060200160405180910390a35050565b600082815260016020819052604090912090810154600160801b900460ff16156109525760405162461bcd60e51b8152602060048201526011602482015270141c9bdc1bdcd85b08195e1958dd5d1959607a1b60448201526064016103f8565b600181015463ffffffff16421080159061097e57506001810154640100000000900463ffffffff164211155b6109b75760405162461bcd60e51b815260206004820152600a6024820152694e6f742061637469766560b01b60448201526064016103f8565b6040516370a0823160e01b81523360048201527f0000000000000000000000000000000000000000000000000000000000000000907f00000000000000000000000000000000000000000000000000000000000000006001600160a01b0316906370a0823190602401602060405180830381865afa158015610a3d573d6000803e3d6000fd5b505050506040513d601f19601f82011682018060405250810190610a619190610f6e565b1015610aa45760405162461bcd60e51b815260206004820152601260248201527124b739bab33334b1b4b2b73a103837bbb2b960711b60448201526064016103f8565b600083815260026020908152604080832033845290915290205460ff1615610b9757600083815260036020908152604080832033845290915290205460ff1615610b2b57600181018054600160401b900463ffffffff16906008610b0783610f3b565b91906101000a81548163ffffffff021916908363ffffffff16021790555050610b6a565b600181018054600160601b900463ffffffff1690600c610b4a83610f3b565b91906101000a81548163ffffffff021916908363ffffffff160217905550505b336000908152600460205260408120805467016345785d8a00009290610b91908490610f5b565b90915550505b600083815260026020908152604080832033808552908352818420805460ff1990811660011790915587855260038452828520918552925290912080548415801591909316179055610c2657600181018054600160401b900463ffffffff16906008610c0283610f87565b91906101000a81548163ffffffff021916908363ffffffff16021790555050610c65565b600181018054600160601b900463ffffffff1690600c610c4583610f87565b91906101000a81548163ffffffff021916908363ffffffff160217905550505b336000908152600460205260408120805467016345785d8a00009290610c8c908490610f28565b90915550506040518215158152339084907ff2913dbe661ee2acc4a046d8fbcdc792373bda34c41c6086484b5345e5785e5f9060200160405180910390a3505050565b610cd7610d0d565b6001600160a01b038116610d0157604051631e4fbdf760e01b8152600060048201526024016103f8565b610d0a81610d3a565b50565b6000546001600160a01b031633146106c25760405163118cdaa760e01b81523360048201526024016103f8565b600080546001600160a01b038381166001600160a01b0319831681178455604051919092169283917f8be0079c531659141344cd1fd0a4f28419497f9722a3daafe3b4186f6b6457e09190a35050565b600060208284031215610d9c57600080fd5b5035919050565b80356001600160a01b0381168114610dba57600080fd5b919050565b600060208284031215610dd157600080fd5b610dda82610da3565b9392505050565b60008060408385031215610df457600080fd5b82359150610e0460208401610da3565b90509250929050565b60008060208385031215610e2057600080fd5b823567ffffffffffffffff80821115610e3857600080fd5b818501915085601f830112610e4c57600080fd5b813581811115610e5b57600080fd5b866020828501011115610e6d57600080fd5b60209290920196919550909350505050565b8015158114610d0a57600080fd5b60008060408385031215610ea057600080fd5b823591506020830135610eb281610e7f565b809150509250929050565b600060208284031215610ecf57600080fd5b8151610dda81610e7f565b634e487b7160e01b600052601160045260246000fd5b600060018201610f0257610f02610eda565b5060010190565b80356020831015610f2257600019602084900360031b1b165b92915050565b80820180821115610f2257610f22610eda565b600063ffffffff821680610f5157610f51610eda565b6000190192915050565b81810381811115610f2257610f22610eda565b600060208284031215610f8057600080fd5b5051919050565b600063ffffffff808316818103610fa057610fa0610eda565b600101939250505056fea2646970667358221220950af9c0eb71044b83979e693722d1b6ac8463cb923eee6df1af2b560f80a61764736f6c63430008140033",
  "linkReferences": {},
  "deployedLinkReferences": {}
}