{
  "_format": "hh-sol-artifact-1",
  "contractName": "DAOVoting",
  "sourceName": "contracts/DAOVoting.sol",
  "abi": [
    {
      "inputs": [
        {
          "internalType": "address",
          "name": "_votingToken",
          "type": "address"
        },
        {
          "internalType": "uint256",
          "name": "_minVotingPower",
          "type": "uint256"
        }
      ],
      "stateMutability": "nonpayable",
      "type": "constructor"
    },
    {
      "inputs": [
        {
          "internalType": "address",
          "name": "owner",
          "type": "address"
        }
      ],
      "name": "OwnableInvalidOwner",
      "type": "error"
    },
    {
      "inputs": [
        {
          "internalType": "address",
          "name": "account",
          "type": "address"
        }
      ],
      "name": "OwnableUnauthorizedAccount",
      "type": "error"
    },
    {
      "anonymous": false,
      "inputs": [
        {
          "indexed": true,
          "internalType": "address",
          "name": "previousOwner",
          "type": "address"
        },
        {
          "indexed": true,
          "internalType": "address",
          "name": "newOwner",
          "type": "address"
        }
      ],
      "name": "OwnershipTransferred",
      "type": "event"
    },
    {
      "anonymous": false,
      "inputs": [
        {
          "indexed": true,
          "internalType": "uint256",
          "name": "proposalId",
          "type": "uint256"
        },
        {
          "indexed": false,
          "internalType": "string",
          "name": "title",
          "type": "string"
        },
        {
          "indexed": false,
          "internalType": "string",
          "name": "description",
          "type": "string"
        }
      ],
      "name": "ProposalCreated",
      "type": "event"
    },
    {
      "anonymous": false,
      "inputs": [
        {
          "indexed": true,
          "internalType": "uint256",
          "name": "proposalId",
          "type": "uint256"
        }
      ],
      "name": "ProposalExecuted",
      "type": "event"
    },
    {
      "anonymous": false,
      "inputs": [
        {
          "indexed": true,
          "internalType": "address",
          "name": "user",
          "type": "address"
        },
        {
          "indexed": false,
          "internalType": "uint256",
          "name": "amount",
          "type": "uint256"
        }
      ],
      "name": "RewardDistributed",
      "type": "event"
    },
    {
      "anonymous": false,
      "inputs": [
        {
          "indexed": true,
          "internalType": "address",
          "name": "user",
          "type": "address"
        },
        {
          "indexed": false,
          "internalType": "uint256",
          "name": "amount",
          "type": "uint256"
        }
      ],
      "name": "RewardsClaimed",
      "type": "event"
    },
    {
      "anonymous": false,
      "inputs": [
        {
          "indexed": true,
          "internalType": "uint256",
          "name": "proposalId",
          "type": "uint256"
        },
        {
          "indexed": false,
          "internalType": "address",
          "name": "voter",
          "type": "address"
        },
        {
          "indexed": false,
          "internalType": "bool",
          "name": "support",
          "type": "bool"
        }
      ],
      "name": "Voted",
      "type": "event"
    },
    {
      "inputs": [],
      "name": "REWARD_AMOUNT",
      "outputs": [
        {
          "internalType": "uint256",
          "name": "",
          "type": "uint256"
        }
      ],
      "stateMutability": "view",
      "type": "function"
    },
    {
      "inputs": [],
      "name": "claimRewards",
      "outputs": [],
      "stateMutability": "nonpayable",
      "type": "function"
    },
    {
      "inputs": [
        {
          "internalType": "string",
          "name": "_title",
          "type": "string"
        },
        {
          "internalType": "string",
          "name": "_description",
          "type": "string"
        }
      ],
      "name": "createProposal",
      "outputs": [],
      "stateMutability": "nonpayable",
      "type": "function"
    },
    {
      "inputs": [
        {
          "internalType": "uint256",
          "name": "_proposalId",
          "type": "uint256"
        }
      ],
      "name": "executeProposal",
      "outputs": [],
      "stateMutability": "nonpayable",
      "type": "function"
    },
    {
      "inputs": [
        {
          "internalType": "uint256",
          "name": "_proposalId",
          "type": "uint256"
        }
      ],
      "name": "getProposal",
      "outputs": [
        {
          "internalType": "uint256",
          "name": "id",
          "type": "uint256"
        },
        {
          "internalType": "string",
          "name": "title",
          "type": "string"
        },
        {
          "internalType": "string",
          "name": "description",
          "type": "string"
        },
        {
          "internalType": "uint256",
          "name": "startTime",
          "type": "uint256"
        },
        {
          "internalType": "uint256",
          "name": "endTime",
          "type": "uint256"
        },
        {
          "internalType": "uint256",
          "name": "yesVotes",
          "type": "uint256"
        },
        {
          "internalType": "uint256",
          "name": "noVotes",
          "type": "uint256"
        },
        {
          "internalType": "bool",
          "name": "executed",
          "type": "bool"
        }
      ],
      "stateMutability": "view",
      "type": "function"
    },
    {
      "inputs": [],
      "name": "minVotingPower",
      "outputs": [
        {
          "internalType": "uint256",
          "name": "",
          "type": "uint256"
        }
      ],
      "stateMutability": "view",
      "type": "function"
    },
    {
      "inputs": [],
      "name": "owner",
      "outputs": [
        {
          "internalType": "address",
          "name": "",
          "type": "address"
        }
      ],
      "stateMutability": "view",
      "type": "function"
    },
    {
      "inputs": [],
      "name": "proposalCount",
      "outputs": [
        {
          "internalType": "uint256",
          "name": "",
          "type": "uint256"
        }
      ],
      "stateMutability": "view",
      "type": "function"
    },
    {
      "inputs": [
        {
          "internalType": "uint256",
          "name": "",
          "type": "uint256"
        }
      ],
      "name": "proposals",
      "outputs": [
        {
          "internalType": "uint256",
          "name": "id",
          "type": "uint256"
        },
        {
          "internalType": "string",
          "name": "title",
          "type": "string"
        },
        {
          "internalType": "string",
          "name": "description",
          "type": "string"
        },
        {
          "internalType": "uint256",
          "name": "startTime",
          "type": "uint256"
        },
        {
          "internalType": "uint256",
          "name": "endTime",
          "type": "uint256"
        },
        {
          "internalType": "uint256",
          "name": "yesVotes",
          "type": "uint256"
        },
        {
          "internalType": "uint256",
          "name": "noVotes",
          "type": "uint256"
        },
        {
          "internalType": "bool",
          "name": "executed",
          "type": "bool"
        }
      ],
      "stateMutability": "view",
      "type": "function"
    },
    {
      "inputs": [],
      "name": "renounceOwnership",
      "outputs": [],
      "stateMutability": "nonpayable",
      "type": "function"
    },
    {
      "inputs": [
        {
          "internalType": "address",
          "name": "newOwner",
          "type": "address"
        }
      ],
      "name": "transferOwnership",
      "outputs": [],
      "stateMutability": "nonpayable",
      "type": "function"
    },
    {
      "inputs": [
        {
          "internalType": "address",
          "name": "",
          "type": "address"
        }
      ],
      "name": "userRewards",
      "outputs": [
        {
          "internalType": "uint256",
          "name": "",
          "type": "uint256"
        }
      ],
      "stateMutability": "view",
      "type": "function"
    },
    {
      "inputs": [
        {
          "internalType": "uint256",
          "name": "_proposalId",
          "type": "uint256"
        },
        {
          "internalType": "bool",
          "name": "_support",
          "type": "bool"
        }
      ],
      "name": "vote",
      "outputs": [],
      "stateMutability": "nonpayable",
      "type": "function"
    },
    {
      "inputs": [],
      "name": "votingToken",
      "outputs": [
        {
          "internalType": "contract IERC20",
          "name": "",
          "type": "address"
        }
      ],
      "stateMutability": "view",
      "type": "function"
    }
  ],
  "bytecode": "0x608060405234801561001057600080fd5b5060405161120538038061120583398101604081905261002f916100d8565b338061005557604051631e4fbdf760e01b81526000600482015260240160405180910390fd5b61005e81610088565b50600180546001600160a01b0319166001600160a01b039390931692909217909155600255610112565b600080546001600160a01b038381166001600160a01b0319831681178455604051919092169283917f8be0079c531659141344cd1fd0a4f28419497f9722a3daafe3b4186f6b6457e09190a35050565b600080604083850312156100eb57600080fd5b82516001600160a01b038116811461010257600080fd5b6020939093015192949293505050565b6110e4806101216000396000f3fe608060405234801561001057600080fd5b50600436106100ea5760003560e01c80638da5cb5b1161008c578063c9d27afe11610066578063c9d27afe146101d9578063cf849442146101ec578063da35c664146101fb578063f2fde38b1461020457600080fd5b80638da5cb5b1461018e578063b0340123146101b3578063c7f758a8146101c657600080fd5b806336fffde0116100c857806336fffde014610162578063372500ab1461016b57806365e481e214610173578063715018a61461018657600080fd5b8063013cf08b146100ef5780630660f1e81461011f5780630d61b5191461014d575b600080fd5b6101026100fd366004610c5c565b610217565b604051610116989796959493929190610cbb565b60405180910390f35b61013f61012d366004610d17565b60056020526000908152604090205481565b604051908152602001610116565b61016061015b366004610c5c565b61036c565b005b61013f60025481565b61016061049a565b610160610181366004610dea565b6105f2565b6101606106b1565b6000546001600160a01b03165b6040516001600160a01b039091168152602001610116565b60015461019b906001600160a01b031681565b6101026101d4366004610c5c565b6106c5565b6101606101e7366004610e5c565b610871565b61013f67016345785d8a000081565b61013f60045481565b610160610212366004610d17565b610ba1565b6003602052600090815260409020805460018201805491929161023990610e8c565b80601f016020809104026020016040519081016040528092919081815260200182805461026590610e8c565b80156102b25780601f10610287576101008083540402835291602001916102b2565b820191906000526020600020905b81548152906001019060200180831161029557829003601f168201915b5050505050908060020180546102c790610e8c565b80601f01602080910402602001604051908101604052809291908181526020018280546102f390610e8c565b80156103405780601f1061031557610100808354040283529160200191610340565b820191906000526020600020905b81548152906001019060200180831161032357829003601f168201915b505050600384015460048501546005860154600687015460079097015495969295919450925060ff1688565b60045481106103965760405162461bcd60e51b815260040161038d90610ec6565b60405180910390fd5b60008181526003602052604090206007015460ff16156103f45760405162461bcd60e51b8152602060048201526019602482015278141c9bdc1bdcd85b08185b1c9958591e48195e1958dd5d1959603a1b604482015260640161038d565b60008181526003602052604090206004015442116104545760405162461bcd60e51b815260206004820152601760248201527f566f74696e6720706572696f64206e6f7420656e646564000000000000000000604482015260640161038d565b600081815260036020526040808220600701805460ff191660011790555182917f712ae1383f79ac853f8d882153778e0260ef8f03b504e2866e0593e04d2b291f91a250565b33600090815260056020526040902054806104ed5760405162461bcd60e51b81526020600482015260136024820152724e6f207265776172647320746f20636c61696d60681b604482015260640161038d565b3360008181526005602052604080822091909155600154905163a9059cbb60e01b81526004810192909252602482018390526001600160a01b03169063a9059cbb906044016020604051808303816000875af1158015610551573d6000803e3d6000fd5b505050506040513d601f19601f820116820180604052508101906105759190610ef3565b6105ba5760405162461bcd60e51b815260206004820152601660248201527514995dd85c99081d1c985b9cd9995c8819985a5b195960521b604482015260640161038d565b60405181815233907ffc30cddea38e2bf4d6ea7d3f9ed3b6ad7f176419f4963bd81318067a4aee73fe9060200160405180910390a250565b6004546000818152600360205260409020908155600181016106148482610f5f565b50600281016106238382610f5f565b5042600382018190556106399062093a80611035565b600480830191909155600060058301819055600683015560078201805460ff19169055546040517fab417751734d6a1f646db70d698328fa08bc6c3f8d4b8ef2a69adb1eb051496b9061068f908690869061104e565b60405180910390a2600480549060006106a78361107c565b9190505550505050565b6106b9610bdf565b6106c36000610c0c565b565b6000606080600080600080600060045489106106f35760405162461bcd60e51b815260040161038d90610ec6565b6000600360008b815260200190815260200160002090508060000154816001018260020183600301548460040154856005015486600601548760070160009054906101000a900460ff1686805461074990610e8c565b80601f016020809104026020016040519081016040528092919081815260200182805461077590610e8c565b80156107c25780601f10610797576101008083540402835291602001916107c2565b820191906000526020600020905b8154815290600101906020018083116107a557829003601f168201915b505050505096508580546107d590610e8c565b80601f016020809104026020016040519081016040528092919081815260200182805461080190610e8c565b801561084e5780601f106108235761010080835404028352916020019161084e565b820191906000526020600020905b81548152906001019060200180831161083157829003601f168201915b505050505095509850985098509850985098509850985050919395975091939597565b60045482106108925760405162461bcd60e51b815260040161038d90610ec6565b60008281526003602052604090206007015460ff16156108f05760405162461bcd60e51b8152602060048201526019602482015278141c9bdc1bdcd85b08185b1c9958591e48195e1958dd5d1959603a1b604482015260640161038d565b600082815260036020908152604080832033845260080190915290205460ff161561094d5760405162461bcd60e51b815260206004820152600d60248201526c105b1c9958591e481d9bdd1959609a1b604482015260640161038d565b60008281526003602081905260409091200154421080159061098057506000828152600360205260409020600401544211155b6109cc5760405162461bcd60e51b815260206004820152601b60248201527f566f74696e6720706572696f64206973206e6f74206163746976650000000000604482015260640161038d565b6002546001546040516370a0823160e01b81523360048201526001600160a01b03909116906370a0823190602401602060405180830381865afa158015610a17573d6000803e3d6000fd5b505050506040513d601f19601f82011682018060405250810190610a3b9190611095565b1015610a895760405162461bcd60e51b815260206004820152601960248201527f496e73756666696369656e7420766f74696e6720706f77657200000000000000604482015260640161038d565b8015610ab6576000828152600360205260408120600501805491610aac8361107c565b9190505550610ad9565b6000828152600360205260408120600601805491610ad38361107c565b91905055505b60008281526003602090815260408083203384526008018252808320805460ff1916600117905560059091528120805467016345785d8a00009290610b1f908490611035565b909155505060408051338152821515602082015283917ff2913dbe661ee2acc4a046d8fbcdc792373bda34c41c6086484b5345e5785e5f910160405180910390a260405167016345785d8a0000815233907fe34918ff1c7084970068b53fd71ad6d8b04e9f15d3886cbf006443e6cdc52ea69060200160405180910390a25050565b610ba9610bdf565b6001600160a01b038116610bd357604051631e4fbdf760e01b81526000600482015260240161038d565b610bdc81610c0c565b50565b6000546001600160a01b031633146106c35760405163118cdaa760e01b815233600482015260240161038d565b600080546001600160a01b038381166001600160a01b0319831681178455604051919092169283917f8be0079c531659141344cd1fd0a4f28419497f9722a3daafe3b4186f6b6457e09190a35050565b600060208284031215610c6e57600080fd5b5035919050565b6000815180845260005b81811015610c9b57602081850181015186830182015201610c7f565b506000602082860101526020601f19601f83011685010191505092915050565b60006101008a8352806020840152610cd58184018b610c75565b90508281036040840152610ce9818a610c75565b60608401989098525050608081019490945260a084019290925260c0830152151560e0909101529392505050565b600060208284031215610d2957600080fd5b81356001600160a01b0381168114610d4057600080fd5b9392505050565b634e487b7160e01b600052604160045260246000fd5b600082601f830112610d6e57600080fd5b813567ffffffffffffffff80821115610d8957610d89610d47565b604051601f8301601f19908116603f01168101908282118183101715610db157610db1610d47565b81604052838152866020858801011115610dca57600080fd5b836020870160208301376000602085830101528094505050505092915050565b60008060408385031215610dfd57600080fd5b823567ffffffffffffffff80821115610e1557600080fd5b610e2186838701610d5d565b93506020850135915080821115610e3757600080fd5b50610e4485828601610d5d565b9150509250929050565b8015158114610bdc57600080fd5b60008060408385031215610e6f57600080fd5b823591506020830135610e8181610e4e565b809150509250929050565b600181811c90821680610ea057607f821691505b602082108103610ec057634e487b7160e01b600052602260045260246000fd5b50919050565b602080825260139082015272125b9d985b1a59081c1c9bdc1bdcd85b081251606a1b604082015260600190565b600060208284031215610f0557600080fd5b8151610d4081610e4e565b601f821115610f5a57600081815260208120601f850160051c81016020861015610f375750805b601f850160051c820191505b81811015610f5657828155600101610f43565b5050505b505050565b815167ffffffffffffffff811115610f7957610f79610d47565b610f8d81610f878454610e8c565b84610f10565b602080601f831160018114610fc25760008415610faa5750858301515b600019600386901b1c1916600185901b178555610f56565b600085815260208120601f198616915b82811015610ff157888601518255948401946001909101908401610fd2565b508582101561100f5787850151600019600388901b60f8161c191681555b5050505050600190811b01905550565b634e487b7160e01b600052601160045260246000fd5b808201808211156110485761104861101f565b92915050565b6040815260006110616040830185610c75565b82810360208401526110738185610c75565b95945050505050565b60006001820161108e5761108e61101f565b5060010190565b6000602082840312156110a757600080fd5b505191905056fea264697066735822122026710046baa0220632f63610ba1064456b11d2908ee5362f0b2e6b812aa56a5464736f6c63430008140033",
  "linkReferences": {},
  "deployedLinkReferences": {}
}